:100000000C94AD070C94F4070C94F4070C94F407CB
:100010000C94F4070C94F4070C94F4070C94F40774
:100020000C94F4070C94F4070C947C130C944E1469
:100030000C94F4070C94F4070C94F4070C94F40754
:100040000C94F4070C94D82C0C94F4070C94F4073B
:100050000C94F4070C94D1220C94F4070C94F4073C
:100060000C94F4070C94F4070C94F4070C94F40724
:100070000C94F4070C94F4070C94F4070C94F40714
:100080000C94F4070C94F4070C94F4070C94F40704
:100090000C94F4070C94F4070C94F4070C94F407F4
:1000A0000C94F4070C94F4070C94F407BB14DD14BF
:1000B000CB15DD14CB1522154515CB159A15AD15AD
:1000C000A418A418D318D318171955196F1B6F1B30
:1000D0006E196F1B6F1A6F1A431B6F1B6F1B5A1B16
:1000E0000000F0A135004C003900E100E000000004
:1000F0001E00340004003300E30050831F0036006C
:100100001200140089002A002000370008000D00AA
:1001100088002C002100130018000E00E20051009E
:1001200022001C000C001B0000006500B6000354F8
:100130000000045400005200B700035400002C08D3
:1001400000004B0023000900070005000000290003
:1001500024000A000B001000E7004E0025000600F6
:1001600017001A006400280026001500110019006D
:100170002F002B0027000F0016001D0030004F83BA
:100180002E8438002D00E5003171000001000100CF
:1001900001000100010000000100140004001D0026
:1001A0000100010001001A0016001B0001000100FF
:1001B0000100080007000600010001000100150011
:1001C0000900190001000100010017000A000500E4
:1001D000000001000100010000000100000001001A
:1001E00001000100000001000000010001001C00EE
:1001F0000B00110000002900010018000D00100084
:100200004A004B0001000C000E0036004D00280093
:10021000010012000F0037002D002B000100130019
:10022000330038002E004E0030842F0034000100CF
:100230003171000001000100010001000100000017
:10024000010001000100010001002A8301000100FA
:100250000100010050002C0001000100010001001C
:100260004F008B00010001000100010001000100AE
:100270000100010001000100000001000100010077
:100280000000010000000100010001000000010069
:100290000000010001000100010001000000010058
:1002A0000100010001000100010001000100010046
:1002B0000100010001008A000100010001000100AD
:1002C00001002800010001000100010001002B8352
:1002D00001000100010001000100000029000100EF
:1002E00001000100010000003A0000004A00000087
:1002F000010001003B00000050000000010001006F
:100300003C00520051000000010001003D004B0084
:100310004F004E00010001003E0000004D000000B3
:100320000000010044000100000001000000010085
:100330004500010000005300000001003F002202C0
:100340002C0036000000010040005F005C005900F6
:1003500062000100410060005D005A00620001007F
:10036000420061005E005B00630001004300550035
:100370005700580067000100460054005600E50091
:100380002A000000FD000000000001000100000044
:10039000FE000000F600000001000000FF00FB006E
:1003A000F20000000000F5000000F000F100F10094
:1003B0000000F4000000FC00F30000000100000059
:1003C00000000000F900FA000000000002540000E4
:1003D00000000100000000000154000000000000C7
:1003E000000000000000000000000000000000000D
:1003F00000000000BC00AC00AA00000000000000EB
:10040000BB00AB00A90000000000000000000000DD
:10041000A800000000000000000000000000000034
:1004200001000000AE000000000000000A002530BE
:10043000313662003A200025303258000A722F63AC
:100440002030313233343536373839414243444530
:10045000460A000A002530325800626F756E6365E7
:10046000213A20006C6566742073696465206174AC
:100470007461636865640A006C65667420736964FE
:1004800065206E6F7420726573706F6E64696E673D
:100490000A00747279696E6720746F2072657365E3
:1004A00074206D637032333031380A000A4445429B
:1004B00055473A20656E61626C65642E0A005B7375
:1004C0005D004B6579626F61726420737461727450
:1004D0002E0A005B575D005B535D005B525D005B65
:1004E000445D005B435D0016034500720067006FCA
:1004F0000044006F007800200045005A00000016FC
:10050000034500720067006F0044006F0078002010
:100510000045005A0000000403090409028D00058B
:100520000100A0FA090400000103010100092111E2
:10053000010001223F000705810308000A090401A8
:10054000000103010200092111010001224D0007F1
:1005500005820308000A09040200010300000009E3
:1005600021110100012236000705830308000A0952
:1005700004030002030000000921110100012220F0
:10058000000705840320000107050403200001097A
:1005900004040001030000000921110100012239B7
:1005A000000705850310000112011001000000087A
:1005B000EDFE071301000102000105010906A1017A
:1005C000050719E029E71500250195087501810245
:1005D0000508190129059505750191029501750315
:1005E00091010507190029771500250195787501F6
:1005F0008102C00631FF0974A1010975150025FFAC
:100600009520750881020976150025FF952075084B
:100610009102C005010980A101850216010026B7DB
:10062000001A01002AB700751095018100C0050C61
:100630000901A1018503160100269C021A01002A66
:100640009C02751095018100C005010902A10109F4
:1006500001A1000509190129051500250195057558
:1006600001810295017503810105010930093115E8
:1006700081257F95027508810609381581257F95AA
:100680000175088106050C0A38021581257F950140
:1006900075088106C0C005010906A101050719E01A
:1006A00029E7150025019508750181029501750856
:1006B000810105081901290595057501910295012A
:1006C000750391010507190029FF150025FF9506FF
:1006D00075088100C00A002530325820006B65790A
:1006E000626F6172645F7265706F72743A20000AA3
:1006F0000025303258006B6579626F6172645F73F8
:1007000065745F6C65643A200064656C5F6B657945
:100710005F6269743A2063616E27742064656C3A85
:1007200020253032580A006164645F6B65795F622E
:1007300069743A2063616E2774206164643A2025ED
:100740003032580A00646F6E652E0A00626F6F6760
:100750006D61676963207363616E3A202E2E2E20CF
:1007600000290A002575002F002575005D28002549
:10077000640020002564002000256400200025641A
:10078000007C0025303258006D6F7573656B65799C
:10079000205B62746E7C782079207620685D2872F8
:1007A00065702F61636C293A205B006D6B5F776821
:1007B00065656C5F74696D655F746F5F6D617820EE
:1007C0003D2025640A006D6B5F776865656C5F6D21
:1007D00061785F7370656564203D2025640A006D53
:1007E0006B5F74696D655F746F5F6D6178203D202C
:1007F00025640A006D6B5F6D61785F737065656479
:10080000203D2025640A006D6B5F696E7465727609
:10081000616C203D2025640A006D6B5F64656C612E
:1008200079203D2025640A006D6B5F776865656CF3
:100830005F74696D655F746F5F6D6178203D202521
:10084000640A006D6B5F776865656C5F6D61785FEA
:100850007370656564203D2025640A006D6B5F74CC
:10086000696D655F746F5F6D6178203D2025640A56
:10087000006D6B5F6D61785F7370656564203D200E
:1008800025640A006D6B5F696E74657276616C2019
:100890003D2025640A006D6B5F64656C6179203DC5
:1008A0002025640A000A00257500363A207768651D
:1008B000656C5F74696D655F746F5F6D61783A2018
:1008C000000A00257500353A20776865656C5F6D14
:1008D00061785F73706565643A20000A00257500D1
:1008E000343A2074696D655F746F5F6D61783A208A
:1008F000000A00257500333A206D61785F737065DA
:1009000065643A20000A00257500323A20696E7449
:10091000657276616C286D73293A20000A0025758E
:1009200000313A2064656C6179282A31306D732971
:100930003A20000A092D2056616C756573202D0A36
:10094000004D3E004D25643E20003F00736574203D
:1009500064656661756C740A00433E2000776865C3
:1009600072652064656C74613A20637572736F728E
:100970003D25642C20776865656C3D25640A5365C8
:100980006520687474703A2F2F656E2E77696B69D5
:1009900070656469612E6F72672F77696B692F4D7F
:1009A0006F7573655F6B6579730A000A092D204DB9
:1009B0006F7573656B6579202D0A4553432F713A26
:1009C00009717569740A313A0964656C6179282A7C
:1009D00031306D73290A323A09696E746572766135
:1009E0006C286D73290A333A096D61785F737065FD
:1009F00065640A343A0974696D655F746F5F6D618F
:100A0000780A353A09776865656C5F6D61785F7360
:100A1000706565640A363A09776865656C5F746964
:100A20006D655F746F5F6D61780A0A703A09707264
:100A3000696E742076616C7565730A643A09736532
:100A4000742064656661756C74730A75703A092B5D
:100A5000310A646F776E3A092D310A706775703A02
:100A6000092B31300A7067646F776E3A092D313087
:100A70000A0A7370656564203D2064656C746120AA
:100A80002A206D61785F7370656564202A20287262
:100A90006570656174202F2074696D655F746F5F88
:100AA0006D6178290A003F004D3E2000433E200042
:100AB0004C25640A000A092D20436F6E736F6C6524
:100AC000202D0A4553432F713A09717569740A6DD7
:100AD0003A096D6F7573656B65790A000A092D20F7
:100AE0004D61676963202D0A643A09646562756720
:100AF0000A783A096465627567206D617472697875
:100B00000A6B3A096465627567206B6579626F618B
:100B100072640A6D3A096465627567206D6F75735A
:100B2000650A763A0976657273696F6E0A733A09D7
:100B30007374617475730A633A09636F6E736F6CD3
:100B400065206D6F64650A302D343A096C617965F2
:100B500072302D34284631302D4634290A506175C3
:100B6000733A09626F6F746C6F616465720A653AFB
:100B700009656570726F6D0A6E3A094E4B524F0AE5
:100B80007A3A09736C656570204C4544207465732E
:100B9000740A000A002575002E6E6B726F3A2000F1
:100BA0000A002575002E737761705F6261636B7355
:100BB0006C6173685F6261636B73706163653A2037
:100BC000000A002575002E737761705F6772617689
:100BD000655F6573633A20000A002575002E6E6F0D
:100BE0005F6775693A20000A002575002E737761EA
:100BF000705F72616C745F726775693A20000A00F9
:100C00002575002E737761705F6C616C745F6C6723
:100C100075693A20000A002575002E636170736CB7
:100C20006F636B5F746F5F636F6E74726F6C3A208B
:100C3000000A002575002E737761705F636F6E7414
:100C4000726F6C5F636170736C6F636B3A20000A44
:100C50000025303258006B65796D61705F636F6E8F
:100C60006669672E7261773A20000A002575002EAA
:100C70006D6F7573653A20000A002575002E6B654F
:100C800079626F6172643A20000A002575002E6D4A
:100C900061747269783A20000A002575002E656E2D
:100CA00061626C653A20000A0025303258006465A4
:100CB0006275675F636F6E6669672E7261773A204F
:100CC000000A0025750064656661756C745F6C616F
:100CD0007965723A20003F004E4B524F3A206F66C2
:100CE000660A004E4B524F3A206F6E0A0074696DCF
:100CF00065725F636F756E743A202530346C580AE4
:100D0000006B6579626F6172645F6E6B726F3A201F
:100D100025580A006B6579626F6172645F69646C63
:100D2000653A2025580A006B6579626F6172645FCD
:100D300070726F746F636F6C3A2025580A00686F89
:100D400073745F6B6579626F6172645F6C65647305
:100D500028293A2025580A000A092D205374617465
:100D60007573202D0A004743433A20342E392E3222
:100D7000204156522D4C4942433A20312E382E30D4
:100D800073766E204156525F415243483A20617655
:100D900072350A004F5054494F4E533A204C554635
:100DA0004120424F4F544D41474943204D4F5553E9
:100DB000454B45592045585452414B455920434FC6
:100DC0004E534F4C4520434F4D4D414E44204E4BCA
:100DD000524F203531320A004255494C443A2034B2
:100DE0006634353533632D6469727479202830395F
:100DF0003A32303A3132204465632031312032308A
:100E00003136290A005649443A203078464545444F
:100E1000284572676F446F7820455A29205049440D
:100E20003A20307831333037284572676F446F7815
:100E300020455A29205645523A20307830303031FA
:100E40000A00444553433A20742E6D2E6B2E206BBE
:100E50006579626F617264206669726D776172652F
:100E600020666F72204572676F646F780A000A0906
:100E70002D2056657273696F6E202D0A000A6D6F02
:100E80007573653A206F66660A000A6D6F75736543
:100E90003A206F6E0A000A6B6579626F6172643A7C
:100EA000206F66660A000A6B6579626F6172643A48
:100EB000206F6E0A000A6D61747269783A206F665D
:100EC000660A000A6D61747269783A206F6E0A00D2
:100ED0000A64656275673A206F6E0A000A6465628B
:100EE00075673A206F66660A000A0A626F6F746C53
:100EF0006F616465722E2E2E2000433E20006565D2
:100F0000636F6E6669673A0A00536C656570204CC2
:100F1000454420746573740A00000000000000005E
:100F200000000000010204060A0F17202C3A4A5D57
:100F300071879DB3C7DAE9F5FCFFFCF5E9DAC7B3C1
:100F40009D87715D4A3A2C20170F0A0604020100A2
:100F50000000000000000000000011241FBECFEFC1
:100F6000DAE0DEBFCDBF04B603FE27C08091F901F1
:100F70009091FA01A091FB01B091FC018730904B58
:100F8000A740B04BD1F41092F9011092FA011092DF
:100F9000FB011092FC0114BE84B7877F84BF0FB69B
:100FA000F894A89580916000886180936000109209
:100FB00060000FBEE0E0FFE3099511E0A0E0B1E0C2
:100FC000EAE6FDE502C005900D92AA33B107D9F714
:100FD00021E0AAE3B1E001C01D92A93FB207E1F709
:100FE0000E94B1100C94B32E0C940000FF93EF9369
:100FF000E0913A01F0913B01309709F00995EF91AA
:10100000FF910895FC018591803011F0EFDFFBCF57
:101010000895FF27E0E230E247FF0CC0419597FFBB
:1010200009C0EDE26095709580959095611D711DE8
:10103000811D911D27FF02C0219530E350E2AA27B0
:10104000660F771F881F991FAA1FA41710F0A41BF3
:1010500063955A95A9F7AA3008F0A95FA05DAF93F0
:10106000F395611571058105910541F7ED3211F494
:10107000EF93F395F21718F43F93F395FBCF8F910D
:10108000B5DFFA95E1F70895E991F99185918030FE
:1010900021F0853219F0AADFF9CF089520E0E89415
:1010A00055915532C1F3503311F4689455915A3328
:1010B00048F4505390F3220F022E220F220F200DDE
:1010C000250FF4CF0EF4219589919991533619F398
:1010D000533729F1533559F1BC0188279927E894F2
:1010E0005C3621F48991999168945591543639F47C
:1010F00046EF7EF077FF0DC08FEF9FEF0AC05537A8
:101100004AE039F0583540E121F0523642E009F02A
:101110000895FF93EF937DDFEF91FF91B7CFFF939A
:10112000EF93FC0181918030B9F360DFFBCFFF9337
:10113000EF9368DFF1CFDF93CF93CDB7DEB725967E
:10114000A3DFCF91DF91089561110BC0FC01828173
:10115000882321F085EE0E94911703C085EE0E943E
:10116000301880E090E008950895CF93DF93609168
:10117000BC017091BD018091BE019091BF010E94A0
:10118000D12156985E9825982D9826982E982798C4
:101190002F98823021F118F4813071F03AC08330F9
:1011A00039F18430B1F5259A2D9A8FE790E090932C
:1011B00089008093880039C0279A2F9ACFE1D0E028
:1011C000D0938D00C0938C000E94031681FF2DC028
:1011D000269A2E9AD0938B00C0938A0026C0279A15
:1011E0002F9A87E090E090938D0080938C0011C03F
:1011F000259A2D9A8FE090E0909389008093880043
:101200000E94031680FD11C0269A2E9A8FE790E067
:1012100008C00E94031681FF08C0269A2E9A8FE10B
:1012200090E090938B0080938A00DF91CF91089596
:1012300085EB98E0892B11F00C94B5080895569829
:101240005E9825982D9826982E9827982F988FEF9E
:1012500090E0909389008093880090938B00809316
:101260008A0090938D0080938C00569A5E9A259AFE
:101270002D9A269A2E9A279A2F9A2FE782E490E1A8
:10128000215080409040E1F700C0000056985E98E1
:1012900025982D9826982E9827982F98089589EAB2
:1012A0008093800089E08093810024982C983F9857
:1012B0008AB18F748AB96E98479A8BB1806B8BB95B
:1012C000769A0E941F0984EB98E0892B11F00C9408
:1012D000B408089580E28093000180913C0181115F
:1012E0000EC00E94B90981E080933C012FEF83ED8D
:1012F00090E3215080409040E1F700C0000080E47E
:101300000E94BF098093000181112EC00E94E9094B
:1013100080930001811128C00E94E9098093000197
:10132000811122C08FE30E94E9098093000181119D
:101330001BC00E94E10980E40E94BF098093000164
:10134000811112C08CE00E94E90980930001811193
:101350000BC00E94E90980930001811105C08FE351
:101360000E94E909809300010E94E1098091000137
:1013700008951092B9008AE08093B800089594EA25
:101380009093BC009091BC0097FFFCCF9091B90066
:10139000987F983021F0903111F081E0089580938A
:1013A000BB0084E88093BC008091BC0087FFFCCF29
:1013B0008091B900887F883111F0803471F780E026
:1013C000089584E98093BC008091BC0084FDFCCF2B
:1013D00008958093BB0084E88093BC008091BC009A
:1013E00087FFFCCF9091B900987F81E0983209F493
:1013F00080E0089584E88093BC008091BC0087FF62
:10140000FCCF8091BB00089580910001811115C02F
:1014100080E40E94BF098093000181110CC082E129
:101420000E94E90980930001811105C08FEF0E949D
:10143000E909809300010E94E10984B1807F84B9A9
:1014400085B1807F85B98AB1837F8AB98BB1837F6B
:101450008BB93E98469808950E946A0980930001CE
:101460000E94040A80B38C7080BB81B3836F81BB00
:10147000AEE3B1E0ECE4F1E08EE08E0F11921D924C
:101480008E13FCCF8FE499E0892B11F00C944F0957
:1014900008959F92AF92BF92CF92DF92EF92FF9208
:1014A0000F931F93CF93DF93809100018823E1F086
:1014B00080913D018F5F80933D01811115C082E9CC
:1014C00094E00E9402080E946A0980930001882328
:1014D00029F088E794E00E94020806C084E694E0C0
:1014E0000E9402080E941F090EE311E0C0E0D0E054
:1014F000BB24B39482E0A82ECC24C394D12C25E540
:10150000E22E24E0F22EC730D10500F580910001D3
:10151000811164C080E40E94BF09809300018111A1
:1015200012C082E10E94E9098093000181110BC081
:10153000C6010C2E01C0880F0A94EAF780950E941C
:10154000E909809300010E94E10948C0CA30A1F076
:1015500028F4C83059F0C93061F005C0CC3089F0AA
:1015600070F0CD3089F0209A289810C0219A2998DF
:101570000DC0229A2A980AC0239A2B9807C0529A23
:1015800001C0539A5B9802C03E9A469890EA9A9599
:10159000F1F79FB1799902C082E001C080E09170BB
:1015A0009B25982B7C9902C084E001C080E0892BA8
:1015B0007D9902C038E001C030E0832B7E9902C0E3
:1015C00020E101C020E0822B9FB19095991F9927BF
:1015D000991F9295990F907E892B10C080910001E0
:1015E000811174C080E40E94BF09809300018823A8
:1015F00009F459C0912C0E94E109892DF8019081CC
:10160000981739F1808380910101882301F180913D
:10161000D70180FF04C08AE594E00E94020880910F
:10162000D70180FF0CC0809101011F928F93FF9220
:10163000EF920E949B080F900F900F900F90809157
:10164000D70180FF04C083E594E00E940208A092C5
:1016500001010E94040A21960F5F1F4FCE30D10571
:1016600009F051CF809101018823B1F0815080931E
:101670000101882339F08FE99FE00197F1F700C05D
:1016800000000AC0ACE4B1E0EEE3F1E0CF01825F1C
:1016900091919D938E13FCCF88E199E0892BC1F045
:1016A0000E94180915C083E10E94E9098093000196
:1016B0008111A0CF81E40E94BF09809300018111B4
:1016C00099CF0E94FA09982E909495CF80E096CFFA
:1016D00081E0DF91CF911F910F91FF90EF90DF900C
:1016E000CF90BF90AF909F900895E82FF0E0E45B1B
:1016F000FE4F80810895CF92DF92EF92FF920F9379
:101700001F93CF93DF938CE394E00E9402088CE454
:10171000E82E81E0F82EC0E0D0E097E3C92E94E0F7
:10172000D92E0EE214E0DF93CF93DF92CF920E9486
:101730009B0884E394E00E940208F70181917F01F5
:1017400090E00E9437229F938F931F930F930E94E4
:101750009B088CE294E00E94020821968DB79EB708
:1017600008960FB6F8949EBF0FBE8DBFCE30D10540
:10177000D1F6DF91CF911F910F91FF90EF90DF9005
:10178000CF9008958B3B910578F4883A910540F508
:10179000853A9105D0F48430910508F0B1C08130CC
:1017A000910509F4ADC06BC0803E910508F467C097
:1017B000883E910508F4A4C09C01205F31092031C6
:1017C000310508F05CC090650895853A910509F4EB
:1017D00059C0863A910509F058C082E890E408950E
:1017E000883A910509F454C0893A910509F453C027
:1017F0008A3A910509F452C08B3A910509F451C017
:101800008C3A910509F450C08D3A910509F44FC006
:10181000803B910509F44EC08E3A910509F44DC004
:101820008F3A910509F44CC0813B910509F44BC0F6
:10183000823B910509F44AC0833B910509F449C0F4
:10184000843B910509F448C0853B910509F447C0E4
:10185000863B910509F446C0873B910509F445C0D4
:10186000883B910509F444C0893B910509F443C0C4
:101870008A3B910509F442C080E094E4089580E039
:1018800090E0089581E890E4089583E890E4089555
:1018900082EE94E4089589EE94E408958AEE94E447
:1018A000089585EB94E4089586EB94E4089587EB1E
:1018B00094E408958CEC94E408958DEC94E40895F8
:1018C00083E895E408958AE895E4089582E995E42B
:1018D000089584E995E4089581E296E4089583E209
:1018E00096E4089584E296E4089585E296E40895E6
:1018F00086E296E4089587E296E408958AE296E403
:10190000089596E0799FF001112494E5899FE00DF8
:10191000F11D1124E60FF11DEE0FFF1FEC51FF4FDB
:10192000859194910895880F991FFC01E05AF04029
:10193000859194910895880F991FFC01E052FF4F03
:1019400085919491089526E0729FF001112444E559
:10195000849FE00DF11D1124E60FF11DEE0FFF1F16
:10196000EC51FF4F859194919C013A9521154FE1DF
:10197000340708F41EC13F512115304120F49F70F7
:101980000E949B0C08959C0130532115304118F49E
:101990009927906C0895811520E5920769F40E94BB
:1019A000911B4FEF84E39CE0415080409040E1F771
:1019B00000C000000C94F622813020E5920751F41B
:1019C0008CEA94E00E9402088091D70181608093A4
:1019D000D70108959C0130552115304108F051C0C0
:1019E000292F33272F70332721303105D9F4AC014B
:1019F0004370552702C0220F331F4A95E2F73C6817
:101A0000AC0164E0440F551F6A95E1F74427537019
:101A1000242B352B73E0880F991F7A95E1F7807698
:101A200099271DC02230310529F4982F8827816F0E
:101A3000906A089523303105A9F4AC01437055270D
:101A400021E030E002C0220F331F4A95E2F73C68E4
:101A500043E0880F991F4A95E1F7807E9770822BAB
:101A6000932B089524303105E1F4AC0143705527E0
:101A700021E030E002C0220F331F4A95E2F73A68B6
:101A8000E7CF9C0130572115304118F49F709062C8
:101A900008959C0130582115304118F49F70906AC8
:101AA0000895803E9105E0F4803C910558F581331E
:101AB000910509F46FC048F48932910509F463C0B7
:101AC0008A32910509F46DC072C089339105E9F03D
:101AD00082389105D1F08533910509F44DC067C076
:101AE000833E910581F138F4803E9105B9F0823E44
:101AF0009105D9F05CC0863E910561F1873E910564
:101B0000A1F155C00E94930C08952091EA0120FD97
:101B100002C021FF4CC080EE90E049C08091EA01F4
:101B200080FFF9CF89E390E042C08091EA0182FF13
:101B30000EC08091EA0184FF03C080E090E037C0CE
:101B400083EE90E034C08091EA0182FFF2CF82EE12
:101B500090E02DC08091EA0183FF0BC08091EA01E3
:101B600084FDEBCF87EE90E022C08091EA0183FFF5
:101B7000F5CF86EE90E01BC08091EA0185FF07C09B
:101B800089E290E014C08091EA0185FFF9CF85E3F6
:101B900090E00DC08091EA0186FF07C08AE290E0E4
:101BA00006C08091EA0186FFF9CF81E390E00E94B0
:101BB000C20B08950895009739F08A30910514F406
:101BC0004D9608950697089587E290E008951F9333
:101BD000CF93DF93FC018281882309F440C0C62F94
:101BE000D0E0D42B82EE0E9491178D2F82958F70BA
:101BF00090E00E94DB0D182F0E949117812F0E9408
:101C00003018CE0188279F70892F90E00E94DB0D4D
:101C1000182F0E949117812F0E943018CE01807FCB
:101C2000992724E0969587952A95E1F70E94DB0D88
:101C3000182F0E949117812F0E943018CE018F70AB
:101C400099270E94DB0DC82F0E9491178C2F0E94AC
:101C5000301882EEDF91CF911F910C943018DF91F4
:101C6000CF911F91089580916D0108959FB7F894C9
:101C700010925C019FBF9091F001943009F057C021
:101C80009091E9009F703091EC00232F217030FD7E
:101C900020E8922B24E02093E9002091EB0020FF24
:101CA00043C02091EE0027FF3FC020915A0122231C
:101CB00021F02091E80025FF37C010925A0126E05C
:101CC0003091E80035FD15C03091F001343061F5F8
:101CD0003091EB0035FD28C0215021F481E0809344
:101CE0005A0122C0EFE9FFE03197F1F700C0000090
:101CF000E7CF8093F1008091E80085FD0AC08091D4
:101D0000E80080FFFCCF8091E8008E778093E800A8
:101D100006C08FB7F89421E020935C018FBF9F70BD
:101D20009093E90080E008959F709093E9008FEF11
:101D30000895CF93DF9300D01F92CDB7DEB79C01FB
:101D40008091F001843019F593E099833B832A83D5
:101D50009093E9008FEF9091E800815095FD06C0C7
:101D600095ED9A95F1F700008111F5CF8091E8008B
:101D700085FF0DC040E050E063E070E0CE010196C9
:101D80000E946C118091E8008E778093E8000F909C
:101D90000F900F90DF91CF910895CF93DF9300D0F4
:101DA0001F92CDB7DEB72091F001243021F522E05B
:101DB00029839B838A8383E08093E9008FEF90914E
:101DC000E800815095FD06C095ED9A95F1F7000069
:101DD0008111F5CF8091E80085FF0DC040E050E013
:101DE00063E070E0CE0101960E946C118091E800E2
:101DF0008E778093E8000F900F900F90DF91CF9136
:101E000008952091F0012430F1F422E02093E900BC
:101E10002FEF3091E800215035FD06C035ED3A95A1
:101E2000F1F700002111F5CF2091E80025FF0BC04C
:101E300040E050E065E070E00E946C118091E800A5
:101E40008E778093E8000895CF93DF932091F0017F
:101E5000243009F048C0EC0180910C018823E1F0A6
:101E600080910D018823C1F085E08093E9008FEF18
:101E70009091E800815095FD06C095E19A95F1F7A3
:101E800000008111F5CF8091E80085FF2CC040E073
:101E900050E060E170E017C081E08093E9008FEFCF
:101EA0009091E800815095FD06C095ED9A95F1F767
:101EB00000008111F5CF8091E80085FF14C040E05B
:101EC00050E068E070E0CE010E946C118091E80063
:101ED0008E778093E80080E1FE01ADE5B1E00190EE
:101EE0000D928A95E1F7DF91CF91089583EE94E00A
:101EF0000E9402088091EF01811109C00E94011324
:101F00000E945E138091E20084608093E200089555
:101F10008FED94E00E9402081092EF0108958BED7E
:101F200094E00C94020887ED94E00E9402080C945F
:101F3000C52C83ED94E00E9402080E9490220E942A
:101F4000CB2C0E9403160C94DA0D20915B012F5FBD
:101F5000822F62E30E94482E992319F020935B019F
:101F6000089510925B0180915C01882371F180914A
:101F7000F001843041F58091E9008F702091EC00F0
:101F8000922F917020FD90E8892B94E09093E900C6
:101F90009091EB0090FF14C09091EE0097FF10C05D
:101FA0009091E80095FF03C01092F100F9CF909155
:101FB000E80090FF05C09091E8009E779093E800BC
:101FC0008F708093E90010925C01089542E061EC0B
:101FD00081E00E947B1242E061EC82E00E947B1271
:101FE00042E061EC83E00E947B1242E261EC84E01B
:101FF0000E947B1242E161EC85E00C947B1280919F
:10200000F201833009F455C030F4813071F0823030
:1020100009F48EC008958A3009F47AC08B3009F42F
:1020200060C0893009F09CC020C08091F101813AE4
:1020300009F096C08091E800877F8093E800809146
:10204000F5019091F601892B21F460E18DE591E095
:1020500003C060E080E090E070E00E94B7118091E2
:10206000E8008B778093E80008958091F101813238
:1020700009F076C08091F5019091F601009719F072
:10208000049709F06DC08091E800877F8093E80095
:102090008091E80082FD05C08091F0018111F8CFA8
:1020A0005FC08091F10080936D018091E8008B7793
:1020B00053C08091F101813A09F052C08091F5013D
:1020C0009091F601892B09F04BC08091E800877F41
:1020D0008093E8008091E80080FFFCCF80910C01A4
:1020E00036C08091F1018132D9F58091F50190914E
:1020F000F601892BA9F58091E800877F8093E8009D
:102100000E94B0128091F30180930C010C94911BFA
:102110008091F101813221F58091E800877F8093E1
:10212000E8000E94B0128091F40180936E0108953E
:102130008091F101813AA1F48091E800877F80933A
:10214000E8008091E80080FFFCCF80916E018093D1
:10215000F1008091E8008E778093E8000C94B01233
:10216000089584B7877F84BF0FB6F894A8958091AF
:102170006000886180936000109260000FBE90E064
:1021800080E80FB6F89480936100909361000FBED1
:102190000E9490160E9401130E945E138091E2003B
:1021A00084608093E20086E39EE00E94CC217894D4
:1021B0000E94E3150E94921682E091E00E94FE15B3
:1021C0000E94B32C82EC94E00E9402088091F001FE
:1021D000853089F48EEB94E00E9402080E9451221F
:1021E0008091EE01882391F30E947C22882371F371
:1021F0000E945611EBCF0E94C016E8CF292F33273B
:1022000023303105C9F064F42130310581F02230EA
:10221000310509F043C08DE890E02BE135E042C084
:1022200021323105F1F02232310541F137C082E12E
:1022300090E028EA35E036C099278130910541F0D9
:102240008230910541F0892B49F5E7E1F5E005C0C1
:10225000EFEFF4E002C0E7EEF4E0849190E09F013C
:1022600021C06530D8F4E62FF0E0EE0FFF1FEB5DE4
:10227000FE4F2081318189E090E014C0653070F418
:1022800070E0FB01EE0FFF1FE55EFE4F2081318104
:10229000FB01EA5EFE4F808190E004C080E090E0A8
:1022A00020E030E0FA0131832083089580E189BD88
:1022B00082E189BD09B400FEFDCF8091D8008F7DF9
:1022C0008093D8008091E00082608093E00080914C
:1022D000E00081FDFCCF0895CF92DF92EF92FF9254
:1022E0000F931F93CF93DF93EC018B016A010E9440
:1022F000CF12811133C0C114D10439F0F6018081AD
:102300009181081B190BC80FD91FE12CF12C011565
:10231000110519F18091E80085FD16C08091E80053
:102320008E778093E800C114D10449F0F6018081D2
:102330009181E80EF91EF182E08285E00FC00E94D3
:10234000CF12882321F30AC089918093F1000150B4
:102350001109FFEFEF1AFF0ADACF80E0DF91CF918A
:102360001F910F91FF90EF90DF90CF9008952091F3
:10237000F7013091F8012617370748F0611571050C
:1023800039F42091E8002E772093E80001C0B901CC
:1023900040E061157105A9F12091F001222309F4B3
:1023A00043C0253009F442C02091E80023FD40C01D
:1023B0002091E80022FD32C02091E80020FFE9CF03
:1023C0004091F3002091F20030E0342BFC01CF016A
:1023D0006115710559F02830310540F481918093E1
:1023E000F100615071092F5F3F4FF1CF41E028307C
:1023F000310509F040E02091E8002E772093E800B5
:10240000C8CF4111C9CF0AC08091F001882361F083
:10241000853061F08091E80083FD0AC08091E8007A
:1024200082FFF2CF80E0089582E0089583E008956E
:1024300081E008952091F7013091F80126173707C0
:1024400048F06115710539F42091E8002E7720934A
:10245000E80001C0B901FC0120E06115710591F1AE
:102460008091F001882309F440C0853009F43FC011
:102470008091E80083FD3DC08091E80082FD2FC07F
:102480008091E80080FFE9CF2091F3008091F20075
:1024900090E0922B6115710559F08830910540F458
:1024A00024912093F1003196615071090196F2CF89
:1024B00021E0089709F020E08091E8008E77809372
:1024C000E800CBCF2111CCCF0AC08091F001882346
:1024D00061F0853061F08091E80083FD0AC0809151
:1024E000E80082FFF2CF80E0089582E0089583E063
:1024F000089581E00895982F973058F59093E9005A
:10250000981739F07091EC002091ED005091F00097
:1025100003C0242F762F50E021FF19C03091EB002B
:102520003E7F3093EB003091ED003D7F3093ED0026
:102530003091EB0031603093EB007093EC0020930E
:10254000ED005093F0002091EE0027FF07C09F5F41
:10255000D3CF8F708093E90081E0089580E00895E3
:102560008091F10187FF11C08091E80082FD05C0D4
:102570008091F0018111F8CF11C08091E8008B7734
:102580000BC08091F001882349F08091E80080FF22
:10259000F8CF8091E8008E778093E800089520912D
:1025A000E4003091E50095E64091EC00842F8170C5
:1025B00040FF22C08091E80080FD1CC08091F001A6
:1025C000882391F0853091F08091EB0085FD10C05B
:1025D0004091E4005091E5004217530729F39A0116
:1025E000915011F784E0089582E0089583E0089502
:1025F00081E0089580E008954091E80042FFDECF39
:1026000008950E946F130E947713E0EEF0E080813E
:1026100081608083E8EDF0E080818F77808319BC52
:10262000A7EDB0E08C918E7F8C9380818F7E80832C
:102630001092EF0108950F931F93CF93DF930E94A1
:102640006F130E947713C8EDD0E088818F7788835D
:1026500088818068888388818F7D888319BC1092E7
:10266000F0011092EC011092EE011092ED0100EEDB
:1026700010E0F80180818B7F80838881816088836E
:1026800042E060E080E00E947B12E1EEF0E08081B9
:102690008E7F8083E2EEF0E08081816080838081A4
:1026A00088608083F80180818E7F8083888180614B
:1026B0008883DF91CF911F910F910895E8EDF0E0AD
:1026C00080818F7E8083E7EDF0E080818160808370
:1026D00084E082BF81E08093EF010C941B13E8ED4E
:1026E000F0E080818E7F80831092E2000895109246
:1026F000DA001092E10008951F920F920FB60F9228
:1027000011242F933F934F935F936F937F938F93F6
:102710009F93AF93BF93EF93FF938091E10082FF6C
:102720000BC08091E20082FF07C08091E1008B7FA7
:102730008093E1000E94A50F8091DA0080FF1FC006
:102740008091D80080FF1BC08091DA008E7F80933B
:10275000DA008091D90080FF0DC080E189BD82E15F
:1027600089BD09B400FEFDCF81E08093F0010E9495
:10277000760F05C019BC1092F0010E94880F80915D
:10278000E10080FF19C08091E20080FF15C08091B8
:10279000E2008E7F8093E2008091E200806180936E
:1027A000E2008091D80080628093D80019BC85E057
:1027B0008093F0010E94930F8091E10084FF30C06C
:1027C0008091E20084FF2CC080E189BD82E189BD57
:1027D00009B400FEFDCF8091D8008F7D8093D80092
:1027E0008091E1008F7E8093E1008091E2008F7EF6
:1027F0008093E2008091E20081608093E20080910A
:10280000EC01882311F084E007C08091E30087FD8C
:1028100002C081E001C083E08093F0010E94990F23
:102820008091E10083FF29C08091E20083FF25C0F1
:102830008091E100877F8093E10082E08093F00146
:102840001092EC018091E1008E7F8093E1008091F5
:10285000E2008E7F8093E2008091E20080618093AD
:10286000E20042E060E080E00E947B128091F00094
:1028700088608093F0000E948F0FFF91EF91BF91CD
:10288000AF919F918F917F916F915F914F913F9108
:102890002F910F900FBE0F901F9018951F920F92BF
:1028A0000FB60F9211242F933F934F935F936F9323
:1028B0007F938F939F93AF93BF93CF93DF93EF93C8
:1028C000FF93C091E900CF708091EC00D82FD170B8
:1028D00080FDD0E81092E9008091F000877F80931E
:1028E000F00078940E9492141092E9008091F00018
:1028F00088608093F000CD2BCF70C093E900FF91EA
:10290000EF91DF91CF91BF91AF919F918F917F9187
:102910006F915F914F913F912F910F900FBE0F904C
:102920001F9018951F93CF93DF93CDB7DEB7AA976B
:102930000FB6F894DEBF0FBECDBFE1EFF1E088E047
:102940008E0F9091F10091938E13FBCF0E94FF0F99
:102950008091E80083FF1FC18091F1019091F20105
:10296000492F50E04A30510508F015C1FA01EA5AE2
:10297000FF4F0C94682E803881F0823809F00BC12B
:102980008091F5018F708093E9008091EB0085FBC9
:10299000882780F91092E90006C08091ED0190919E
:1029A000EE01911182609091E800977F9093E8008A
:1029B0008093F1001092F100C8C0282F2D7F09F0FC
:1029C000EAC0882319F0823061F0E5C08091F301FC
:1029D000813009F0E0C0933009F080E08093EE018F
:1029E0002BC08091F301811127C08091F5018F7078
:1029F00009F4D1C08093E9002091EB0020FF1CC0B6
:102A0000933021F48091EB00806214C09091EB0030
:102A100090619093EB0021E030E0A90102C0440FE7
:102A2000551F8A95E2F74093EA001092EA008091E0
:102A3000EB0088608093EB001092E9008091E80041
:102A4000877F86C08111A7C01091F3011F77809105
:102A5000E3008078812B8093E3008091E800877FFA
:102A60008093E8000E94B0128091E80080FFFCCFC4
:102A70008091E30080688093E300111102C082E03E
:102A800001C083E08093F00186C08058823008F056
:102A900082C08091F3019091F4018C3D53E0950741
:102AA00079F583E08A838AE289834FB7F894DE015F
:102AB000139620E03EE051E2E32FF0E05093570000
:102AC000E49120FF03C0E295EF703F5FEF708E2F1F
:102AD00090E0EA3010F0C79601C0C0968D939D93A8
:102AE0002F5F243149F74FBF8091E800877F8093A3
:102AF000E8006AE270E0CE0101960E94B71114C0AE
:102B0000AE014F5F5F4F6091F5010E94FE10BC0166
:102B1000892B09F440C09091E800977F9093E800DA
:102B200089819A810E941A128091E8008B778093A4
:102B3000E80031C0803879F58091E800877F809384
:102B4000E8008091EC018093F1008091E8008E779D
:102B50008093E8000E94B0121EC081111CC09091A9
:102B6000F3019230C0F48091E800877F8093E80001
:102B70009093EC010E94B0128091EC01811106C08B
:102B80008091E30087FD02C081E001C084E0809372
:102B9000F0010E94E60F8091E80083FF0AC0809157
:102BA000E800877F8093E8008091EB00806280934B
:102BB000EB00AA960FB6F894DEBF0FBECDBFDF9133
:102BC000CF911F910895CF938091F0018823A1F0B8
:102BD000C091E900CF709091EC00892F817090FD39
:102BE00080E8C82B1092E9008091E80083FD0E94E4
:102BF0009214CF70C093E900CF910895909374011F
:102C0000809373010895E0917301F09174013097FE
:102C100021F00190F081E02D099480E00895EF9279
:102C2000FF920F931F93CF93DF93E0917301F09185
:102C300074013097B1F18C010280F381E02D099588
:102C40008091D70182FF2DC080FF04C08DED96E0FA
:102C50000E940208E80110E187EDE82E86E0F82ED8
:102C60008091D70180FF0BC088811F928F93FF92C4
:102C7000EF920E949B080F900F900F900F901150B1
:102C800021961111EDCF8091D70180FF0AC085ED0B
:102C900096E0DF91CF911F910F91FF90EF900C94F0
:102CA0000208DF91CF911F910F91FF90EF9008954F
:102CB000E0917301F0917401309721F00480F58167
:102CC000E02D0994089520917101309172018217CD
:102CD000930771F09093720180937101E0917301F9
:102CE000F0917401309721F00680F781E02D09946E
:102CF000089520916F01309170018217930771F050
:102D00009093700180936F01E0917301F0917401D1
:102D1000309721F00084F185E02D099408950895FD
:102D20000C948F160E9492220E942C0A0C94582315
:102D3000CF93C82F8091D70182FF1EC080FF04C0AF
:102D400086EF96E00E9402088091D70180FF0CC0B8
:102D50001F92CF9381EF96E09F938F930E949B08E1
:102D60000F900F900F900F908091D70180FF04C0BB
:102D70008FEE96E00E9402088C2FCF910C94DA0D12
:102D8000CF92DF92EF92FF920F931F93CF93DF9337
:102D9000CDB7DEB72B970FB6F894DEBF0FBECDBF11
:102DA0000E94490A86E7C82E81E0D82E00E010E094
:102DB000E02E802F0E94750BF60141916F01F42ED9
:102DC000F826B1F40F5F1F4F0E30110589F78FEF12
:102DD00089838A831B820E949B228160782F9D8336
:102DE0008C8349815A816B818D810E94631740C019
:102DF0009091D70191FF04C08B870E947B0B8B853C
:102E000020E030E04F2D50E0922FBA01022E02C098
:102E1000759567950A94E2F760FF24C02E83EF82D0
:102E200021E030E0690102C0CC0CDD1C9A95E2F78C
:102E300090E08C219D21892B09F420E028870E94B5
:102E40009B228160782F9A8789874E815F81688570
:102E50008A850E946317F801EA58FE4F8081C826D0
:102E6000C08206C02F5F3F4F2630310569F6AACFDA
:102E70000E94C926109175010E9403161817A1F02F
:102E80000E940316809375012B960FB6F894DEBF4F
:102E90000FBECDBFDF91CF911F910F91FF90EF90AB
:102EA000DF90CF900C9498162B960FB6F894DEBF57
:102EB0000FBECDBFDF91CF911F910F91FF90EF908B
:102EC000DF90CF900895CF93DF93CDB7DEB72B97E8
:102ED0000FB6F894DEBF0FBECDBF4F83588769870A
:102EE0007A878B87DE01119686E0FD0111928A9523
:102EF000E9F785E0FE01379601900D928A95E1F79A
:102F000049815A816B817C818D819E810E942B1E1B
:102F10002B960FB6F894DEBF0FBECDBFDF91CF91D9
:102F20000895CF93882309F499C0C82F8CEF8C0F94
:102F3000813A48F48C2F0E945B2B81118FC08C2F1B
:102F40000E94C7200CC080E28C0F883058F4C770F4
:102F500081E001C0880FCA95EAF70E946F21CF91E6
:102F60000C94A6218BE58C0F833078F4C53A29F0B8
:102F7000C63A31F083E890E005C081E890E002C0F5
:102F800082E890E0CF910C94631688E58C0F833132
:102F900008F064C0C83A39F1C93A41F1CA3A49F176
:102FA000CB3A51F1CC3A59F1CD3A61F1C03B69F1DC
:102FB000CE3A71F1CF3A79F1C13B81F1C23B89F14F
:102FC000C33B91F1C43B99F1C53BA1F1C63BA9F1CB
:102FD000C73BB1F1C83BB9F1C93BC1F1CA3BC9F12B
:102FE00080E090E038C082EE90E035C089EE90E05D
:102FF00032C08AEE90E02FC085EB90E02CC086EBCB
:1030000090E029C087EB90E026C08CEC90E023C0D4
:103010008DEC90E020C083E891E01DC08AE891E04B
:103020001AC082E991E017C084E991E014C081E2FE
:1030300092E011C083E292E00EC084E292E00BC005
:1030400085E292E008C086E292E005C087E292E065
:1030500002C08AE292E0CF910C947916CF91089544
:10306000882329F19CEF980F913A18F40E941A21B5
:103070000DC090E2980F983058F4877091E001C02D
:10308000990F8A95EAF7892F0E9475210C94A62141
:103090009BE5980F933020F480E090E00C94631649
:1030A000885A833120F480E090E00C9479160895DA
:1030B000882321F00E946F210C94A6210895882373
:1030C00021F00E9475210C94A6210895BF92CF9201
:1030D000DF92EF92FF920F931F93CF93DF9300D075
:1030E00000D000D0CDB7DEB725E0FC01DE0111969F
:1030F00001900D922A95E1F7FC0140813181028116
:10310000258122952F7063817481672B09F4E7C2B2
:103110003F3F19F44F3F09F4E2C27C0149833A83EF
:1031200089819A812E830E948620182FB92E0E94B1
:1031300085200E944C1FEB2DE295EF70F0E0E05AE5
:10314000FF4F2E810C94682E8B2D807F9B2D9F70BE
:10315000F92E882319F0F29480EFF822002349F029
:10316000FF2009F469C28F2D0E947F210E94A621B1
:1031700063C2812F0E943018FF2009F4B0C28F2D46
:103180000E94852126960FB6F894DEBF0FBECDBFF4
:10319000DF91CF911F910F91FF90EF90DF90CF9033
:1031A000BF900C94A6213B2D307F8B2D8F70303239
:1031B00011F08295807F112319F0113021F12DC07B
:1031C0000023B9F0222309F4A1C1213009F09EC1E6
:1031D00026960FB6F894DEBF0FBECDBFDF91CF911C
:1031E0001F910F91FF90EF90DF90CF90BF900C94C4
:1031F0008F21222319F0213009F471C28E830E949D
:1032000092218E8197C1002321F0263008F067C2F9
:103210007DC1253008F063C28DC1002321F0222337
:1032200009F474C109C2222309F484C11AC22B2DE6
:1032300026952695237030E02115310521F02130A7
:103240003105D1F04CC2002321F0812F9B2D9370CA
:1032500002C080E090E026960FB6F894DEBF0FBE65
:10326000CDBFDF91CF911F910F91FF90EF90DF9035
:10327000CF90BF900C946316002321F0812F9B2DDB
:10328000937002C080E090E026960FB6F894DEBFFF
:103290000FBECDBFDF91CF911F910F91FF90EF90A7
:1032A000DF90CF90BF900C947916812F002319F0F6
:1032B0000E944F2502C00E94B72526960FB6F894AB
:1032C000DEBF0FBECDBFDF91CF911F910F91FF9059
:1032D000EF90DF90CF90BF900C943C268B2D8370A5
:1032E00009F07BC00111FBC1812F82958695877003
:1032F000880F880F912F9F70C92ED12CE12CF12CB3
:10330000082E04C0CC0CDD1CEE1CFF1C0A94D2F766
:1033100014FF12C04FE050E060E070E004C0440FC2
:10332000551F661F771F8A95D2F7CB01BA016095AA
:1033300070958095909503C060E070E0CB012B2DD7
:10334000269526952370422F50E042305105D9F042
:103350004330510569F16C297D298E299F2941301F
:10336000510551F126960FB6F894DEBF0FBECDBFC2
:10337000DF91CF911F910F91FF90EF90DF90CF9051
:10338000BF900C94731F6C297D298E299F29269646
:103390000FB6F894DEBF0FBECDBFDF91CF911F9166
:1033A0000F91FF90EF90DF90CF90BF900C948F1F04
:1033B0000E94731FC701B60126960FB6F894DEBFB0
:1033C0000FBECDBFDF91CF911F910F91FF90EF9076
:1033D000DF90CF90BF900C94571F002319F08B2DD6
:1033E000817001C08695882309F479C1812F829567
:1033F00086958770880F880F912F9F70C92ED12CCA
:10340000E12CF12C082E04C0CC0CDD1CEE1CFF1CA2
:103410000A94D2F714FF12C04FE050E060E070E071
:1034200004C0440F551F661F771F8A95D2F7CB0142
:10343000BA01609570958095909503C060E070E04A
:10344000CB012B2D269526952370422F50E042303C
:103450005105D9F04330510569F16C297D298E2938
:103460009F294130510551F126960FB6F894DEBFE1
:103470000FBECDBFDF91CF911F910F91FF90EF90C5
:10348000DF90CF90BF900C944D206C297D298E2920
:103490009F2926960FB6F894DEBF0FBECDBFDF91F1
:1034A000CF911F910F91FF90EF90DF90CF90BF9041
:1034B0000C9469200E944D20C701B60126960FB6D4
:1034C000F894DEBF0FBECDBFDF91CF911F910F915A
:1034D000FF90EF90DF90CF90BF900C943120103F81
:1034E000D1F118F4103E50F4A2C0123F09F464C0A8
:1034F00008F44DC0133F09F474C099C01F708B2DA0
:103500008F710023A1F00E94CA1F812F26960FB64B
:10351000F894DEBF0FBECDBFDF91CF911F910F9109
:10352000FF90EF90DF90CF90BF900C9458180E94BE
:10353000EB1F812F26960FB6F894DEBF0FBECDBFCE
:10354000DF91CF911F910F91FF90EF90DF90CF907F
:10355000BF900C945F180023B1F0253008F0BFC075
:103560008B2D8F7126960FB6F894DEBF0FBECDBFA0
:10357000DF91CF911F910F91FF90EF90DF90CF904F
:10358000BF900C941020263008F0A9C0E9CF00238A
:10359000A9F08B2D8F7126960FB6F894DEBF0FBE63
:1035A000CDBFDF91CF911F910F91FF90EF90DF90F2
:1035B000CF90BF900C94CA1F002359F38B2D8F71AD
:1035C00026960FB6F894DEBF0FBECDBFDF91CF9128
:1035D0001F910F91FF90EF90DF90CF90BF900C94D0
:1035E000EB1F002399F08B2D8F7126960FB6F89460
:1035F000DEBF0FBECDBFDF91CF911F910F91FF9026
:10360000EF90DF90CF90BF900C94B51F26960FB629
:10361000F894DEBF0FBECDBFDF91CF911F910F9108
:10362000FF90EF90DF90CF90BF900C94AB1F0023E2
:10363000A9F0222309F4ADCF812F26960FB6F89476
:10364000DEBF0FBECDBFDF91CF911F910F91FF90D5
:10365000EF90DF90CF90BF900C949117222309F444
:10366000ADCF812F26960FB6F894DEBF0FBECDBF2B
:10367000DF91CF911F910F91FF90EF90DF90CF904E
:10368000BF900C9430184B2D4F70612FC7010E94D2
:10369000A40826960FB6F894DEBF0FBECDBFDF910B
:1036A000CF911F910F91FF90EF90DF90CF90BF903F
:1036B0000C94CF1E4B2D4F70612FC70126960FB66D
:1036C000F894DEBF0FBECDBFDF91CF911F910F9158
:1036D000FF90EF90DF90CF90BF900C94E70D26966F
:1036E0000FB6F894DEBF0FBECDBFDF91CF911F9113
:1036F0000F91FF90EF90DF90CF90BF9008950E94C0
:103700008C210E9461210E94A6210E946E270E94A6
:103710003C2680E090E00E94631680E090E00C94EC
:1037200079160E947C210C947F1B0E948620292FF1
:1037300022952F7030E02C3031054CF42A303105C1
:103740006CF4225031092230310588F407C02C3046
:10375000310549F02F30310531F009C0803E48F085
:10376000803F29F406C093FB882780F9089580E004
:10377000089581E00895CF93DF9300D000D01F9289
:10378000CDB7DEB70F900F900F900F900F90DF9195
:10379000CF910895CF93DF9300D000D000D0CDB764
:1037A000DEB726960FB6F894DEBF0FBECDBFDF9111
:1037B000CF9108951F93CF93DF93C091840116E0BA
:1037C00080918501C81799F0D0E01C9FF0011D9FE2
:1037D000F00D1124EA57FE4F4081518162817381BF
:1037E000848195810E94CA1B2196C770E9CFDF9121
:1037F000CF911F9108954091B6015091B70160910A
:10380000B8017091B9018091BA019091BB010C94FB
:10381000CA1B8091BB0182958F7009F054C08091C2
:10382000B801882309F44FC080918401A0918501DB
:103830006091B6017091B7014091B9015091BA0100
:10384000B6E08A1709F43FC090E041155105C1F177
:103850007F3F11F46F3FA1F1B89FF001B99FF00DC8
:103860001124EA57FE4F218172132AC0208162136E
:1038700027C02281211124C02381348124173507D8
:1038800010F421503109241B350B283C3105C0F4BC
:103890002091BB012F7020612093BB0126E0289F5F
:1038A000F001299FF00D1124E557FE4F80818F70A4
:1038B0008061808386EB91E00E9466180C94DA1B8D
:1038C00001968770BECF0895CF92DF92EF92FF925C
:1038D0000F931F93CF93DF93CDB7DEB762970FB6E9
:1038E000F894DEBF0FBECDBF8C0185E0F801DE018C
:1038F0001D9601900D928A95E1F7D8014C91119691
:103900005C91119712966C9112971396CD90DC9062
:1039100014973091B6017091B7018091B9019091DF
:10392000BA01009709F46BC17F3F19F43F3F09F4D6
:1039300066C1E090B801EE2009F4C0C02091BB013F
:10394000C816D90628F0F601E81BF90BCF0104C010
:10395000809590958C0D9D1DFF24F394883C9105D6
:1039600078F0F12C207F09F0C6C07C2DD98AC88A56
:1039700089890E94BB1B86EB91E00E946618B1C04A
:10398000822F807F09F046C0751314C0341312C013
:10399000611110C02F7020612093BB010E94FB1B9E
:1039A00086EB91E00E9466188091BB01D8011596C4
:1039B0008C932EC0CD2819F15F3F11F44F3FF9F0E1
:1039C000F62E61111CC0809184012091850136E0A2
:1039D000821709F45AC090E0389FF001399FF00D2A
:1039E0001124EA57FE4F7181571306C070814713A7
:1039F00003C07281711103C001968770E9CFF62E62
:103A0000662309F418C18091BB0181608093BB01DA
:103A1000F12C11C1751308C0341306C0611104C024
:103A20008091BB01D801C3C04D875E878D859E857F
:103A30006A8B0E94951B6A898823E1F16623D1F184
:103A40002091BB01822F82958F7090E0029774F0D5
:103A50008091B6019091B70198878F831986DB8694
:103A6000CA862C87CE0107960E94661886E0F80168
:103A7000A6EBB1E001900D928A95E1F70E94091C36
:103A80000E94FB1BFF24F394D6C04D875E878D8573
:103A90009E850E948620292F22952F7030E02230AB
:103AA00031050CF0BCC09F7009F0B6C0805E883054
:103AB00008F4C1C0C8010E946618E4CFC816D90630
:103AC00008F453C0F601E81BF90BCF01883C9105BF
:103AD00008F450C0F12C7C2DD98AC88A89890E94AB
:103AE000BB1BE6EBF1E086E0DF011D928A95E9F76A
:103AF0000E94FB1BA0C0751314C0341312C06111C7
:103B000010C08091BB01F8018583C8010E9466182E
:103B100086E0E6EBF1E0DF011D928A95E9F7FE2CE5
:103B20008AC04D875E878D859E856A8B0E94951B16
:103B30006A89882309F4BECF662309F4BBCF20919C
:103B4000BB01822F82958F7090E002970CF48ECF8C
:103B50008091B6019091B7019A8389831B82DD829F
:103B6000CC822E83CE0101967FCF809590958C0DCF
:103B70009D1DACCFF62E662309F49CCF75132EC085
:103B800034132CC02091BB0120FD1FC0822F8295D1
:103B90008F70D9F0D80115962C9315978F3049F076
:103BA0008F5F982F9295907F822F8F70892B15961B
:103BB0008C93C8010E94661886E0F801A6EBB1E07C
:103BC00001900D928A95E1F793CF86E0F801A6EB7C
:103BD000B1E001900D928A95E1F72DC04D875E8787
:103BE0008D859E850E94951B811140CF8091BB01E0
:103BF00081608093BB01C8010E9466181CC06623C7
:103C000009F458CF4D875E878D859E850E94951B50
:103C1000882309F44FCF2ACF811148CF0CC024301C
:103C200031050CF047CF9F7009F440CFF801958122
:103C3000907F09F03BCF8F2D62960FB6F894DEBFD0
:103C40000FBECDBFDF91CF911F910F91FF90EF90ED
:103C5000DF90CF9008951F93CF93DF93CDB7DEB75A
:103C60002C970FB6F894DEBF0FBECDBF4F83588799
:103C700069877A878B879C87CE0107960E94641C90
:103C8000882369F08F8198852A853B85232BF1F164
:103C90009F3F09F063C08F3F09F060C037C086E0E6
:103CA000FE013796DE01119601900D928A95E1F79B
:103CB0006F817885EA85FB85309741F17F3F11F46C
:103CC0006F3F21F12091850130E0C9010196877095
:103CD00099274091840150E08417950709F447C063
:103CE00069837A83FD83EC8396E0929FD001939F52
:103CF000B00D1124AA57BE4FFE01319601900D92CE
:103D00009A95E1F7809385010E94DA1B16E0809175
:103D10008401909185018917C1F1189FC001112478
:103D20008A579E4F0E94641C882379F1E091840198
:103D30001E9FF0011124EA57FE4F4081518162819C
:103D40007381848195810E94CA1B8091840190E0D7
:103D500001968770992780938401D9CF4F81588528
:103D600069857A858B859C850E94CA1BCFCF0E946E
:103D7000911B1092850110928401E6EBF1E086E040
:103D8000DF011D928A95E9F7C1CF2C960FB6F89402
:103D9000DEBF0FBECDBFDF91CF911F910895EF928F
:103DA000FF920F931F93CF93DF938C01892B09F41C
:103DB0006CC0F12CEE24E394E8012196F801849183
:103DC000843740F4843008F051C0813081F0823073
:103DD00019F15BC0853709F444C0A8F19CE7980F3E
:103DE000903708F052C08F770E94301841C00E5FA4
:103DF0001F4FFE01C49180E28C0F883048F4C770D9
:103E00008E2D01C0880FCA95EAF70E947F2114C049
:103E10008C2F0E9491172DC00E5F1F4FFE01C49181
:103E200080E28C0F883058F4C7708E2D01C0880F47
:103E3000CA95EAF70E9485210E94A6211AC08C2FFC
:103E40000E94301816C00E5F1F4FFE01C491CC2394
:103E500081F08FE99FE00197F1F700C00000C150A9
:103E6000F6CF0E5F1F4FFE01F49003C00E94911722
:103E70008E018F2D882309F49FCFEFE9FFE0319762
:103E8000F1F700C000008150F5CFDF91CF911F9175
:103E90000F91FF90EF90089508956093C001709383
:103EA000C1018093C2019093C3010C947F1B0F93B7
:103EB0001F930091C0011091C1012091C201309166
:103EC000C301DC01CB01802B912BA22BB32B809360
:103ED000C0019093C101A093C201B093C3011F918F
:103EE0000F910C947F1B0F931F930091C0011091B1
:103EF000C1012091C2013091C301DC01CB018023BB
:103F00009123A223B3238093C0019093C101A09376
:103F1000C201B093C3011F910F910C947F1B0F93AB
:103F20001F930091C0011091C1012091C2013091F5
:103F3000C301DC01CB0180279127A227B3278093FF
:103F4000C0019093C101A093C201B093C3011F911E
:103F50000F910C947F1B1092BC011092BD01109226
:103F6000BE011092BF010C947F1B41E050E060E065
:103F700070E004C0440F551F661F771F8A95D2F763
:103F80004093BC015093BD016093BE017093BF018B
:103F90000C947F1B41E050E060E070E004C0440FEF
:103FA000551F661F771F8A95D2F78091BC019091AB
:103FB000BD01A091BE01B091BF01482B592B6A2BC6
:103FC0007B2B4093BC015093BD016093BE01709365
:103FD000BF010C947F1B41E050E060E070E004C042
:103FE000440F551F661F771F8A95D2F7409550954D
:103FF000609570958091BC019091BD01A091BE012A
:10400000B091BF01482359236A237B234093BC010D
:104010005093BD016093BE017093BF010C947F1B50
:1040200041E050E060E070E004C0440F551F661F9F
:10403000771F8A95D2F78091BC019091BD01A09124
:10404000BE01B091BF01482759276A277B274093BB
:10405000BC015093BD016093BE017093BF010C94ED
:104060007F1B0F931F930091BC011091BD01209104
:10407000BE013091BF01DC01CB01802B912BA22B23
:10408000B32B8093BC019093BD01A093BE01B0936C
:10409000BF011F910F910C947F1B0F931F930091F1
:1040A000BC011091BD012091BE013091BF01DC0126
:1040B000CB0180239123A223B3238093BC0190934F
:1040C000BD01A093BE01B093BF011F910F910C944D
:1040D0007F1B0F931F930091BC011091BD01209194
:1040E000BE013091BF01DC01CB0180279127A227BF
:1040F000B3278093BC019093BD01A093BE01B09300
:10410000BF011F910F910C947F1B0895CF92DF92F6
:10411000EF92FF920F931F93CF93DF938C01C09088
:10412000C001D090C101E090C201F090C301409164
:10413000BC015091BD016091BE017091BF01C42AC4
:10414000D52AE62AF72ACFE1D0E0D701C6010C2E06
:1041500004C0B695A795979587950A94D2F780FFE6
:1041600007C0B8018C2F0E94A30C8130910531F457
:10417000219758F7B80180E00E94A30CDF91CF91FE
:104180001F910F91FF90EF90DF90CF900895909145
:104190000C01992321F090910D01911109C02091FA
:1041A0000E0130910F01F90132969FEF40E030C0CF
:1041B000982F9695969596959F30A0F4E0910E01D4
:1041C000F0910F01E90FF11D877021E030E0A901A6
:1041D00002C0440F551F8A95E2F7CA019181892BCD
:1041E000818308959091D70190FF23C01F928F93F0
:1041F00087E297E09F938F930E949B080F900F9008
:104200000F900F9008959F3F39F04F5F4E3041F06F
:1042100051915813F8CF0DC05111F7CF942FF5CF0E
:104220009F3F39F0F901E90FF11D97FDFA9582835F
:104230000895089590910C01992321F090910D011A
:10424000911109C020910E0130910F01F9013296B0
:10425000205F3F4F30C0982F9695969596959F304A
:10426000A8F4E0910E01F0910F01E90FF11D8770A4
:1042700021E030E0A90102C0440F551F8A95E2F702
:10428000CA01809591818923818308959091D701F6
:1042900090FF16C01F928F9389E097E09F938F93B2
:1042A0000E949B080F900F900F900F9008953196E9
:1042B000E217F30729F090819813F9CF1082F7CF16
:1042C000089581E090E0E0910E01F0910F01E80F78
:1042D000F91F1082019680319105A9F708959091F8
:1042E000D601892B8093D601089580959091D601AF
:1042F00089238093D60108951092D6010895909154
:10430000D501892B8093D501089580959091D50191
:1043100089238093D50108951092D5010895809343
:10432000C40108951092C401089580910E019091E6
:104330000F01FC0131969C01205F3F4F80E091917D
:1043400091118F5FE217F307D1F70895E0910E0105
:10435000F0910F018091D6018083E0910E01F091E0
:104360000F0190818091D501892B80838091C401B8
:10437000882361F0E0910E01F0910F019081892B6B
:1043800080830E94952181111092C40180910E01B9
:1043900090910F010C940F1690933B0180933A017A
:1043A0000895CF92DF92EF92FF926C01EE24FF24EA
:1043B000C114D104E104F10421F0C701B60120E1E8
:1043C00001C020E0C72ED82EE92EFF24C114D1044D
:1043D000E104F10419F0285FC701B6016B017C010B
:1043E00054E0F694E794D794C7945A95D1F7C11442
:1043F000D104E104F10419F02C5FC701B6016B018F
:104400007C0142E0F694E794D794C7944A95D1F79B
:10441000C114D104E104F10419F02E5FC701B60103
:10442000DC01CB01B695A79597958795892B8A2BAB
:104430008B2B09F02F5F822FFF90EF90DF90CF90B2
:1044400008958295982F9C7C392F36953695282F84
:10445000237344E0249FC0011124932F982B292F0C
:104460002A7A2695892F8575880F822B08951F93A8
:10447000CF93DF931F92CDB7DEB799830E9421229D
:10448000182F9981892F0E942122212F30E0322F6D
:104490002227A901482BCA010F90DF91CF911F91CC
:1044A00008958091F001843021F11092D80120E428
:1044B00088E190E00FB6F894A895809360000FBE55
:1044C0002093600083B7817F846083BF83B781605E
:1044D00083BF7894889583B78E7F83BF0FB6F89497
:1044E000A8958091600088618093600010926000C0
:1044F0000FBE089508950895CF930E947A220E94D6
:10450000490A0E947B22C0E08C2F0E94750B81110A
:1045100004C0CF5FCE30C1F701C081E0CF910895D4
:104520000C94911B82E084BD93E095BD9AEF97BDFA
:1045300080936E0008952FB7F8948091D9019091DF
:10454000DA01A091DB01B091DC012FBF0895CF9279
:10455000DF92EF92FF920F931F932FB7F894409141
:10456000D9015091DA016091DB017091DC012FBF1C
:104570006A017B01EE24FF248C0120E030E0C016AC
:10458000D106E206F30610F4415051099A01281BA6
:10459000390BC9011F910F91FF90EF90DF90CF90E1
:1045A00008951F920F920FB60F9211248F939F932D
:1045B000AF93BF938091D9019091DA01A091DB0173
:1045C000B091DC010196A11DB11D8093D90190939A
:1045D000DA01A093DB01B093DC01BF91AF919F9111
:1045E0008F910F900FBE0F901F9018950E9401138E
:1045F000F8942FEF87EA91E6215080409040E1F750
:1046000000C0000087E090EBDC018093F9019093FB
:10461000FA01A093FB01B093FC019CE088E10FB686
:10462000F894A895809360000FBE90936000FFCF30
:10463000EF92FF920F931F93CF93DF93D82FC0E099
:104640008C2F0E94750B00E010E0E82EF12CC701C2
:10465000002E02C0959587950A94E2F780FD06C06A
:104660000F5F1F4F0630110591F709C0602F7C2F97
:1046700080E00E94810CD813F3CF81E004C0CF5FAB
:10468000CE30F1F680E0DF91CF911F910F91FF9036
:10469000EF900895CF93C82F8CE20E9418238823AF
:1046A00021F08C2FCF910C94182380E0CF910895A6
:1046B000CF930E94A724811102C00E948D248CE414
:1046C00097E00E940208C5E6C15049F00E94490ADD
:1046D0008FE39CE90197F1F700C00000F5CF85E476
:1046E00097E00E94020889E20E944A23811113C1C7
:1046F0008AE20E944A2381110E948D2485E00E9453
:104700004A2381110E94F6220E94B2248093D7018D
:1047100087E00E944A238823A9F18BE10E944A2363
:10472000882351F08091D70181FB222720F991E065
:10473000922790FB81F90EC08EE00E944A238823C5
:1047400061F08091D70182FB222720F991E0922726
:1047500090FB82F98093D70115C080E10E944A2323
:104760009091D701882341F093FB222720F981E023
:10477000822780FB93F904C0892F809580FB90F9F4
:104780009093D7018091D7010E94B6240E94C4243F
:104790008093EA0180EE0E944A23882341F08091B1
:1047A000EA01982F909590FB80F98093EA0189E3C4
:1047B0000E944A23882359F08091EA0181FB222735
:1047C00020F991E0922790FB81F98093EA0182EE33
:1047D0000E944A23882359F08091EA0182FB222714
:1047E00020F991E0922790FB82F98093EA0186EE0E
:1047F0000E944A23882359F08091EA0183FB2227F3
:1048000020F991E0922790FB83F98093EA0183EEEF
:104810000E944A23882359F08091EA0184FB2227D1
:1048200020F991E0922790FB84F98093EA0185E3D7
:104830000E944A23882359F08091EA0185FB2227B0
:1048400020F991E0922790FB85F98093EA0181E3BA
:104850000E944A23882359F08091EA0186FB22278F
:1048600020F991E0922790FB86F98093EA0181E19B
:104870000E944A23882359F08091EA0187FB22276E
:1048800020F991E0922790FB87F98093EA018091CB
:10489000EA010E94C8248091EA0187FB882780F9F9
:1048A00080930D0187E20E944A23C82F8EE10E9467
:1048B0004A238111C2608FE10E944A238111C460A2
:1048C00080E20E944A238111C86081E20E944A234B
:1048D0008111C06182E20E944A238111C06283E299
:1048E0000E944A238111C06484E20E944A238823E3
:1048F00011F0C06802C0CC2329F08C2F0E94BF2485
:104900006C2F03C00E94BB24682F70E080E090E011
:10491000CF910C944D1FCF9108956DEE7EEF80E006
:1049200090E00E949E2E60E082E090E00E94902E37
:1049300060E083E090E00E94902E60E084E090E0F0
:104940000E94902E60E085E090E00C94902E80E034
:1049500090E00E948A2E21E08D3E9E4F09F020E0DB
:10496000822F089582E090E00C94822E682F82E0DE
:1049700090E00C94902E83E090E00C94822E682FAF
:1049800083E090E00C94902E84E090E00C94822ED2
:10499000682F84E090E00C94902E8091DF0180FFDE
:1049A0000BC06091130185E0689FB00111247595DB
:1049B0006795759567952BC081FF09C060911301BC
:1049C00085E0689FB00111247595679520C082FF2E
:1049D00007C06091130185E0689FB001112417C0E2
:1049E0009091E0019923D1F060911201961788F718
:1049F0002091130185E0289F90011124929FA0012E
:104A0000939F500D112470E0CA010E94542E60380B
:104A1000710540F46115710539F002C065E070E080
:104A2000862F08958FE7089581E008958091DF0132
:104A300080FF08C06091110170E0759567957595CC
:104A4000679521C081FF06C06091110170E07595E6
:104A5000679519C082FF04C06091110170E010C019
:104A60009091E0019923C1F0609110019617A0F791
:104A700080911101899FC001112470E00E94542E81
:104A80006038710528F46115710521F0862F0895AD
:104A90008FE7089581E0089561E070E0F4CF803FF2
:104AA00021F40E94CD24819504C0813F29F40E9405
:104AB000CD248093E3010895823F21F40E94CD2408
:104AC000819504C0833F29F40E94CD248093E201A4
:104AD0000895893F19F40E94162505C08A3F31F4D4
:104AE0000E94162581958093E40108958B3F21F45F
:104AF0000E941625819504C08C3F29F40E9416253A
:104B00008093E5010895843F21F48091E101816063
:104B100017C0853F21F48091E101826011C0863F7A
:104B200021F48091E10184600BC0873F21F48091E2
:104B3000E101886005C0883F31F48091E101806126
:104B40008093E10108958D3F21F48091DF01816020
:104B50000BC08E3F21F48091DF01826005C08F3F42
:104B600029F48091DF0184608093DF010895803F04
:104B700039F48091E30187FF6CC01092E30169C0B2
:104B8000813F29F48091E3011816BCF362C0909133
:104B9000E201823F29F497FF5CC01092E20159C004
:104BA000833F19F41916CCF354C0893F41F4809126
:104BB000E40118160CF04DC01092E4014AC08A3F7F
:104BC00029F48091E40187FF44C0F6CF8B3F39F48C
:104BD0008091E50187FF3DC01092E5013AC08C3F0E
:104BE00029F48091E5011816BCF333C0843F21F409
:104BF0008091E1018E7F17C0853F21F48091E10112
:104C00008D7F11C0863F21F48091E1018B7F0BC025
:104C1000873F21F48091E101877F05C0883F31F40F
:104C20008091E1018F7E8093E10113C08D3F21F4DB
:104C30008091DF018E7F0BC08E3F21F48091DF01D8
:104C40008D7F05C08F3F29F48091DF018B7F80939A
:104C5000DF018091E20181110EC08091E301811199
:104C60000AC08091E401811106C08091E5018111A3
:104C700002C01092E00108958091D70183FF7EC0A9
:104C800088E897E00E9402088091E1011F928F93CB
:104C900083E897E09F938F930E949B0881E897E0B9
:104CA0000E9402088091E201282F082E000C330B8D
:104CB0003F938F938EE797E09F938F930E949B087B
:104CC0008CE797E00E9402088091E301282F082ECC
:104CD000000C330B3F938F9389E797E09F938F935B
:104CE0000E949B0887E797E00E9402088091E401F8
:104CF000282F082E000C330B3F938F9384E797E007
:104D00009F938F930E949B0882E797E00E9402087E
:104D10008091E501282F082E000C330B3F938F93D1
:104D20008FE697E09F938F930E949B088CE697E015
:104D30000E9402088091E0011F928F9389E697E01C
:104D40009F938F930E949B0887E697E00E9402083A
:104D50008091DF011F928F9384E697E09F938F935A
:104D60000E949B0881E697E00E9402088DB79EB7DB
:104D70004C960FB6F8949EBF0FBE8DBF81EE91E0AA
:104D80000E9458160E949B229093DE018093DD01C1
:104D900008951F93CF93DF938091DD019091DE0101
:104DA0000E94A722AC019091E001992321F020916B
:104DB000140130E006C0209115018AE0289F90017F
:104DC00011244217530708F485C08091E201C09175
:104DD000E301D091E4011091E501811107C0C111F7
:104DE00075C0D11173C0111171C074C09F3F19F00B
:104DF0009F5F9093E001181624F40E94CD248093C5
:104E0000E2018091E20187FF05C00E94CD248195D7
:104E10008093E2011C1624F40E94CD248093E301C8
:104E20008091E30187FF05C00E94CD248195809386
:104E3000E3016091E201662331F1C091E301CC23EB
:104E400011F1062E000C770B880B990B0E944F2D49
:104E500023E333E343E35FE30E94B32D0E94172D66
:104E60006093E2016C2FCC0F770B880B990B0E949B
:104E70004F2D23E333E343E35FE30E94B32D0E940E
:104E8000172D6093E3011D1624F40E9416258093CC
:104E9000E4018091E40187FF05C00E9416258195F9
:104EA0008093E401111624F40E9416258093E501F5
:104EB0008091E50187FF05C00E94162581958093AA
:104EC000E501DF91CF911F910C943C269F3F09F0A3
:104ED0008FCF97CFDF91CF911F910895E1EEF1E051
:104EE00085E0DF011D928A95E9F71092E0011092AA
:104EF000DF0108958BEA99E00E9402081F9281E089
:104F00008F931F9285E08F938DE599E09F938F9308
:104F10000E949B080F900F900F900F900F900F9092
:104F200008958330E9F128F4813061F0823009F18D
:104F30000895853009F462C008F449C0863009F448
:104F400074C0089580911501262F30E0280F311D7F
:104F50002F3F310524F4680F6093150103C08FEFD4
:104F600080931501809115011F928F9386E998E037
:104F700072C080911401262F30E0280F311D2F3F81
:104F8000310524F4680F6093140103C08FEF809300
:104F90001401809114011F928F9384E898E05BC004
:104FA00080911301262F30E0280F311D2F3F31054E
:104FB00024F4680F6093130103C08FEF80931301F3
:104FC000809113011F928F9381E798E044C08091F4
:104FD0001201262F30E0280F311D2F3F310524F418
:104FE000680F6093120103C08FEF809312018091CC
:104FF00012011F928F938CE598E02DC080911101D2
:10500000262F30E0280F311D2F3F310524F4680F83
:105010006093110103C08FEF809311018091110102
:105020001F928F9383E498E016C080911001262F81
:1050300030E0280F311D2F3F310524F4680F6093B5
:10504000100103C08FEF80931001809110011F9217
:105050008F9388E298E09F938F930E949B080F9014
:105060000F900F900F900895833081F128F48130D4
:1050700059F08230D1F00895853009F449C0B8F173
:10508000863009F456C0089580911501681720F400
:10509000861B8093150102C01092150180911501A5
:1050A0001F928F9389E198E054C080911401681792
:1050B00020F4861B8093140102C010921401809189
:1050C00014011F928F9387E098E043C080911301F1
:1050D000681720F4861B8093130102C010921301FD
:1050E000809113011F928F9384EF97E032C08091DB
:1050F0001201681720F4861B8093120102C01092DF
:105100001201809112011F928F938FED97E021C0C1
:1051100080911101681720F4861B8093110102C051
:1051200010921101809111011F928F9386EC97E0EC
:1051300010C080911001681720F4861B8093100125
:1051400002C010921001809110011F928F938BEA80
:1051500097E09F938F930E949B080F900F900F9062
:105160000F900895CF93C82F1F928F9380EB9AE0F2
:105170009F938F930E949B0881E090E0A0E0B0E0B5
:10518000BC01CD0104C0660F771F881F991FCA9507
:10519000D2F70E944D1F0F900F900F900F90CF915C
:1051A0000C94911BCF938D3109F465C0B0F58E300E
:1051B00009F4CCC100F5873009F49BC1A8F486300E
:1051C00009F06DC28091D701817F8E7F8093D701D6
:1051D00085EB9AE00E9402088AEF9EE00E94020896
:1051E00081E08093E70180C1883009F44FC08B30A3
:1051F00009F47CC154C2863109F4F0C138F480311D
:1052000009F4B8C1813109F430C249C2893109F4C5
:10521000CEC18B3109F486C142C2853309F437C24D
:1052200048F4873209F433C208F433C2893209F4EE
:105230002EC235C2833438F48A3308F02CC2883346
:1052400009F454C12CC2833409F421C2883409F012
:1052500026C20E94911B89EE9EE00E9402089FEFE9
:1052600023ED80E3915020408040E1F700C0000032
:105270000E94F62239C189E09FE00E9402080E9444
:10528000D12C0E9403160E94DA0D2EC18EEF9EE0F3
:105290000E94020886EC9CE00E9402080E94BB2447
:1052A0001F928F9383EC9CE09F938F930E949B08A7
:1052B00081EC9CE00E9402080E94B224C82F8EEA72
:1052C0009CE00E9402081F92CF9389EA9CE09F9382
:1052D0008F930E949B0887EA9CE00E9402088DE958
:1052E0009CE00E9402088C2F81701F928F938AE9A4
:1052F0009CE09F938F930E949B0888E99CE00E940A
:1053000002088EE89CE00E940208C1FB882780F911
:105310001F928F938BE89CE09F938F930E949B0832
:1053200089E89CE00E9402088DE79CE00E94020848
:10533000C2FB882780F91F928F938AE79CE09F9396
:105340008F930E949B0888E79CE00E9402088FE6EA
:105350009CE00E940208C3FBCC27C0F91F92CF93A8
:105360008CE69CE09F938F930E949B088AE69CE0CA
:105370000E9402080E94C424C82F86E59CE00E9477
:1053800002081F92CF9381E59CE09F938F930E9428
:105390009B088FE49CE00E94020886E39CE00E9448
:1053A00002088C2F81701F928F9383E39CE09F9360
:1053B0008F930E949B088DB79EB780960FB6F89486
:1053C0009EBF0FBE8DBF81E39CE00E9402088AE170
:1053D0009CE00E940208C1FB882780F91F928F93EE
:1053E00087E19CE09F938F930E949B0885E19CE05E
:1053F0000E94020883E09CE00E940208C2FB88270A
:1054000080F91F928F9380E09CE09F938F930E947E
:105410009B088EEF9BE00E9402088CEE9BE00E94AE
:105420000208C3FB882780F91F928F9389EE9BE0C7
:105430009F938F930E949B0887EE9BE00E94020837
:105440008DED9BE00E940208C4FB882780F91F9223
:105450008F938AED9BE09F938F930E949B0888ED2A
:105460009BE00E94020886EC9BE00E940208C5FBBC
:10547000882780F91F928F9383EC9BE09F938F93F3
:105480000E949B0881EC9BE00E94020885EA9BE059
:105490000E940208C6FB882780F91F928F9382EA38
:1054A0009BE09F938F930E949B0880EA9BE00E9461
:1054B000020888E99BE00E940208C7FBCC27C0F9DC
:1054C0001F92CF9385E99BE09F938F930E949B0847
:1054D00083E99BE00E9402088DB79EB74C960FB6F9
:1054E000F8949EBF0FBE8DBFC1E0DEC08CED9AE088
:1054F0005BC08091D701C82FC17080FF09C08CEDBF
:105500009EE00E9402088091D701817F8E7F47C074
:1055100080ED9EE00E9402088091D7018160809317
:10552000D701E2CF9091D70191FBCC27C0F981E060
:10553000C827892FC0FB81F98093D701CC2319F0AC
:1055400083EC9EE027C085EB9EE02EC09091D701B2
:1055500092FBCC27C0F981E0C827892FC0FB82F9D4
:105560008093D701CC2319F086EA9EE013C086E928
:105570009EE01AC09091D70193FBCC27C0F981E03F
:10558000C827892FC0FB83F98093D701CC2351F022
:105590008AE89EE00E9402088091D7018160809392
:1055A000D70182C08DE79EE00E9402089DCF8EE663
:1055B0009EE00E94020882E49EE00E94020885E0CC
:1055C0009EE00E94020888ED9DE00E94020884E9A6
:1055D0009DE00E94020886E69DE0E6CF88E59DE01A
:1055E0000E9402080E9403161F928F938EE39DE093
:1055F0009F938F930E949B0880910C011F928F9321
:1056000087E29DE09F938F930E949B0880916E019B
:105610001F928F9384E19DE09F938F930E949B083C
:1056200080910D011F928F9381E09DE09F938F9356
:105630000E949B088091D9019091DA01A091DB0131
:10564000B091DC01BF93AF939F938F938DEE9CE05D
:105650009F938F930E949B088DB79EB746960FB677
:10566000F8949EBF0FBE8DBF3FCF0E94911BC0918B
:105670000D0181E0C827C0930D01CC2329F083EEF2
:105680009CE00E94020810C088ED9CE08DCF80E075
:1056900003C08D5101C089530E94B22825CF86EDE9
:1056A0009CE00E940208C0E08C2FCF91089580E01A
:1056B000089580E00895CF93C82F8091E70181304D
:1056C00081F020F0823009F44FC045C1E0910E0115
:1056D000F0910F018081813169F0823209F03DC182
:1056E00009C0E0910E01F0910F018081813111F02C
:1056F000823261F48C2F0E94572B811104C08C2FB1
:105700000E94D2282FC081E090E02CC08C2F0E94F4
:10571000592B811126C0C431E1F070F4CB3081F0F7
:10572000C031D1F40E947A2788EA9AE00E940208E8
:1057300082E08093E70115C0C93259F0C83361F4A3
:1057400085EB9AE00E9402088CEA9AE00E94020827
:1057500008C01092E70103C186EA9AE00E9402089D
:10576000FEC081E08170FDC0C43220F5CE3108F06A
:10577000C0C0CB3099F1C8F4C73009F0D2C08AE07C
:105780008093150194E19093140193E09093130199
:105790008093120188E08093110188E280931001C8
:1057A0008CE499E00E940208BFC0C33149F1C431C2
:1057B000C1F0B7C0CB3409F4A9C028F4C93289F0CC
:1057C000C83361F0AEC0C13509F49EC0C23509F4DA
:1057D00099C0CE3409F0A5C06AE09EC00E947A2725
:1057E000A3C08091E601882319F01092E6019CC0C5
:1057F00089E599E00E94020881E08093E701B1C049
:1058000083E399E00E94020881E299E00E94020885
:10581000809115011F928F938EE199E09F938F9352
:105820000E949B088CE199E00E9402088AE099E0BE
:105830000E940208809114011F928F9387E099E0E3
:105840009F938F930E949B0885E099E00E94020835
:1058500086EF98E00E940208809113011F928F93B7
:1058600083EF98E09F938F930E949B0881EF98E0CD
:105870000E94020880EE98E00E94020880911201C6
:105880001F928F938DED98E09F938F930E949B08BA
:105890008BED98E00E94020886EC98E00E940208D6
:1058A000809111011F928F9383EC98E09F938F93C7
:1058B0000E949B0881EC98E00E9402088AEA98E026
:1058C0000E940208809110011F928F9387EA98E04E
:1058D0009F938F930E949B0885EA98E00E9402089C
:1058E0008DB79EB748960FB6F8949EBF0FBE8DBF7A
:1058F0001BC0CE51EC2FF0E0E15DFE4F8081809324
:10590000E60112C061E003C061E006C06AE0809178
:10591000E6010E94912708C08091E6010E94342888
:1059200003C08AE499E013C08091E601882369F0FE
:105930001F928F9384E499E09F938F930E949B081A
:105940000F900F900F900F9004C081E499E00E9497
:10595000020881E006C01092E70180E002C080E00A
:1059600001CFCF910895E1E8F0E0808188608083E5
:105970008081816080838FB7F89493E09093890051
:1059800090ED909388008FBF0895EFE6F0E080815E
:10599000826080830895EFE6F0E080818D7F8083D0
:1059A0000895EFE6F0E0908182E0892780830895F2
:1059B0001F920F920FB60F9211242F933F934F9384
:1059C0005F936F937F938F939F93AF93BF93EF9367
:1059D000FF938091E8019091E90101969093E9018C
:1059E0008093E801811103C082E00E94DA0DE0910A
:1059F000E901E695E695F0E0E75EF04FE4918091ED
:105A0000E8018E1303C080E00E94DA0DFF91EF9150
:105A1000BF91AF919F918F917F916F915F914F91C6
:105A20003F912F910F900FBE0F901F9018950E94DD
:105A30001E2D6894B1110C94AD2D08950E94922DE5
:105A400088F09F5798F0B92F9927B751B0F0E1F03F
:105A5000660F771F881F991F1AF0BA95C9F714C0EF
:105A6000B13091F00E94AC2DB1E008950C94AC2DB2
:105A7000672F782F8827B85F39F0B93FCCF3869528
:105A800077956795B395D9F73EF490958095709585
:105A900061957F4F8F4F9F4F0895E89409C097FB02
:105AA0003EF490958095709561957F4F8F4F9F4FF5
:105AB0009923A9F0F92F96E9BB279395F695879539
:105AC00077956795B795F111F8CFFAF4BB0F11F4FC
:105AD00060FF1BC06F5F7F4F8F4F9F4F16C08823A3
